:100000000C9472000C9469020C9493000C9493006D
:100010000C9493000C943B020C9416020C949300E5
:100020000C9493000C9493000C9493000C94930004
:100030000C9493000C9493000C9493000C949300F4
:100040000C9493000C9493000C9493000C949300E4
:100050000C9493000C9493000C9493000C949300D4
:100060000C9493000C94CD030C9493000C94930087
:100070000C9493000C9493000C9493000C949300B4
:100080000C9493000C9493000C9493000C949300A4
:100090000C9493000C9493000C9493000C94930094
:1000A0000C9493000C9493000C9493000C94930084
:1000B0000C9493000C9493000C9493000C94930074
:1000C0000C9493000C9493000C9493000C94930064
:1000D0000C9493000C9493000C9493000C94930054
:1000E0000C94930011241FBECFEFD1E2DEBFCDBF31
:1000F00000E00CBF13E0A0E0B2E0E4EEFFE100E0BE
:100100000BBF02C007900D92AA30B107D9F714E0D7
:10011000AAE0B3E001C01D92AF3FB107E1F70E9432
:100120001E050C94F00F0C9400008AEF90E0FC0187
:100130003197F1F74098419840E348B9429A22EE4E
:1001400034E0F9013197F1F74298FC013197F1F76A
:100150004098419848B9429AF9013197F1F742988D
:10016000FC013197F1F74098419848B9429AF9015A
:100170003197F1F742980197F1F74098419880E262
:1001800088B9429AC9010197F1F74298089598B148
:100190009F7098B928B1982F907F922B98B940986A
:1001A0004198429A22EE34E0F9013197F1F74298F2
:1001B00098B19F7098B998B18295807F982B98B923
:1001C00040984198429AC9010197F1F742980895E1
:1001D0008AEF90E00197F1F788E20E94C70081E082
:1001E0000E94C70086E00E94C7008EE00E94C70000
:1001F00080E80E94C700089598B19F7098B928B10F
:10020000982F907F922B98B9409A4198429A22EE6B
:1002100034E0F9013197F1F7429898B19F7098B99D
:1002200098B18295807F982B98B9409A4198429ACC
:10023000C9010197F1F74298089580E80E94C7002C
:100240000895CF93DF93EC0103C00E94FC00219638
:1002500088818823D1F7DF91CF910895823069F0AA
:10026000833018F48130A9F405C0833049F084301C
:1002700081F40BC0862F815805C0862F815402C09F
:10028000862F8D560E94C7000895862F8D520E949A
:10029000C70008950F931F93CF93DF938A01E9015D
:1002A000882311F0662319F40E941D0102C00E94E8
:1002B0002E01C530D10571F4C80160E177E20E94DA
:1002C000A50FCB01C09690932C0380932B030E9423
:1002D000FC0005C0C430D10511F080E016C0C80193
:1002E00068EE73E00E94A50FCB016093C303909367
:1002F000C4036AE070E00E94A50FC0969093FE04CC
:100300008093FD040E94FC0081E0C330D10521F000
:10031000813011F080E016C0C80164E670E00E94F0
:10032000A50FCB016093C3039093C4036AE070E010
:100330000E94A50FC0969093F4048093F3040E944A
:10034000FC0081E0C230D10521F0813011F080E065
:1003500016C0C8016AE070E00E94A50FCB0160934F
:10036000C3039093C4036AE070E00E94A50FC09697
:100370009093D1038093D0030E94FC0081E0C130B0
:10038000D10511F0813061F4C8016AE070E00E948B
:10039000A50FC0969093FC048093FB040E94FC0080
:1003A00026971CF085E40E94FC00DF91CF911F91FD
:1003B0000F91089587B1876F87B988B1807888B920
:1003C000089510BA11BA1092070110920801089509
:1003D000259A2D9A08953B9A4398089581B18F608C
:1003E00081B982B1807F82B9EAE0F1E080818861E1
:1003F0008083EBE0F1E080818861808308958AB199
:100400008E6F8AB9589A0895F894EAE6F0E08081F0
:1004100082608083EC9A78940895F894EAE6F0E09C
:10042000808188608083ED9A789408951F920F925E
:100430000FB60F9211248F939F93AF93BF93809128
:100440000E0390910F03A0911003B0911103019638
:10045000A11DB11D80930E0390930F03A093100371
:10046000B0931103BF91AF919F918F910F900FBEE9
:100470000F901F9018951F920F920FB60F92112494
:100480008F939F93AF93BF9380910A0390910B0337
:10049000A0910C03B0910D030196A11DB11D809395
:1004A0000A0390930B03A0930C03B0930D03BF9129
:1004B000AF919F918F910F900FBE0F901F90189545
:1004C000F894E9E6F0E0808182608083E89A78948D
:1004D00008951F920F920FB60F9211248F939F933E
:1004E000AF93BF9380911D0390911E03A0911F03B2
:1004F000B09120030196A11DB11D80931D0390931F
:100500001E03A0931F03B0932003BF91AF919F914F
:100510008F910F900FBE0F901F90189586B1886035
:1005200088B9089586B1877F88B908956C98749AC0
:1005300008956D98759A0895E1E2F1E010829FEFB9
:100540009093250181E080932401109229019093DA
:10055000280110922B0190932A0110922D01909363
:100560002C0189EA809320018BE080830895E1E8E3
:10057000F0E010828CEF8093850081E0809384000E
:1005800093E0909389008FEF8093880090938B0085
:1005900080938A0090938D0080938C0090938700C5
:1005A000809386008BEA80938000109282008CE01A
:1005B00080830895EAE7F0E0108210927B0080E2E9
:1005C00080937C0080E880BF86E880830895982F20
:1005D000883018F088E080937B0097709062909349
:1005E0007C0080917A00806480937A0080917A0008
:1005F00084FFFCCF8091790090917A009061909374
:100600007A0010927B0008950F931F93182F062FE6
:10061000842F0E94E702482F8093CD03812F602F03
:1006200050E023E030E00E944A011F910F910895AD
:100630008093280160932A01089592B1907F8F7072
:10064000892B82B9089582B1807F866082B908952E
:1006500082B1807F896082B9089582B1807F856090
:1006600082B9089582B1807F8A6082B9089582B18B
:10067000807F846082B9089582B1807F826082B970
:10068000089582B1807F816082B9089582B1807FB0
:10069000886082B9089582B1807F82B908951092EE
:1006A0000E0310920F031092100310921103109278
:1006B0000A0310920B0310920C0310920D03A0E09A
:1006C000B0E0BC01CD010E94370D28E431EE42E8D4
:1006D00050E40E94070C0E943709672B21F482B175
:1006E000807F82B90895FFCF10920E0310920F03FE
:1006F0001092100310921103FFCF22B1207F2660C9
:1007000022B90E947403089522B1207F296022B982
:100710000E947403089522B1207F256022B90E94AF
:100720004F03089522B1207F2A6022B90E944F030F
:10073000089522B1207F246022B9880F991F0E945A
:100740004F03089522B1207F226022B9880F991F9C
:100750000E944F03089522B1207F216022B9880FA3
:10076000991F0E944F03089522B1207F286022B96B
:10077000880F991F0E944F030895E1ECF0E010826A
:100780001092C00086E08093C2008FE58093C40081
:100790001092C50088E9808308951F920F920FB6CA
:1007A0000F9211248F939F939091C6009093F2041F
:1007B000809100028093C600983311F486E00BC04C
:1007C000923311F489E007C0943311F485E003C03B
:1007D000963319F48AE082B90EC0953311F412B839
:1007E0000AC0973319F486B1886004C0993319F4AC
:1007F00086B1877F88B99F918F910F900FBE0F9020
:100800001F9018955E985F9808955E9A5F9A089574
:100810005E985F9A08955E9A5F9808955C9A5D9AD3
:1008200008955E985F9810921D0310921E03109217
:100830001F031092200380911D0390911E03A0912D
:100840001F03B09120038093C9039093CA03A09320
:10085000CB03B093CC0308955E9A5F9A10921D0368
:1008600010921E0310921F031092200380911D030B
:1008700090911E03A0911F03B09120038093C503A4
:100880009093C603A093C703B093C80308955E98DE
:100890005F9A10921D0310921E0310921F03109274
:1008A000200380911D0390911E03A0911F03B0911E
:1008B00020038093250390932603A0932703B093EE
:1008C000280308951092890090E0A0E0B0E0BC01F8
:1008D000CD010E94370D2BE734E14EEE5FE30E941D
:1008E000070C20E030E04CE052E40E94E00A0E9455
:1008F000370960938800089583E0809389008FEF23
:10090000809388000895259A2D9A87B1876F87B9BB
:1009100088B1807888B910BA11BA10920701109284
:10092000080181B18F6081B982B1807F82B9EAE02C
:10093000F1E0808188618083EBE0F1E08081886173
:1009400080833B9A43988AB18E6F8AB9589A6C9883
:10095000749A6D98759A0895F8940E948304F89497
:10096000E9E6F0E0808182608083E89A7894F894E8
:10097000EAE6F0E0808182608083EC9A7894F894D3
:10098000EAE6F0E0808188608083ED9A7894EAE777
:10099000F0E0108210927B0080E280937C0080E87F
:1009A00080BF86E880830E94B702E1E2F1E0108216
:1009B0009FEF9093250181E08093240110922901FB
:1009C0009093280110922B0190932A0110922D01EF
:1009D00090932C0189EA809320018BE08083E1ECE5
:1009E000F0E010821092C00086E08093C2008FE594
:1009F0008093C4001092C50088E98083789408959C
:100A0000C39764F0433351051CF021E030E014C07B
:100A100080E090E06333710574F00BC063337105BF
:100A20001CF420E030E008C080E090E04333510542
:100A300014F081E090E09C01C9010895CF92DF920B
:100A4000EF92FF920F931F930E94AC040E949500B7
:100A50000E94E8001092F6041092F5041092F80437
:100A60001092F7048CE68093F9048EE68093FA04E2
:100A7000E2E8CE2E76E9D72E60E5E62E83E00E94EE
:100A8000E7028093170382E00E94E7028093180335
:100A900081E00E94E7028093190381E065E042E073
:100AA0000E9404031092140310911703009118037D
:100AB000F090190360910A0370910B0380910C036D
:100AC00090910D0320910E0330910F03409110037C
:100AD00050911103620F731F841F951F0E94370DE1
:100AE00025EE30ED4AEA50E40E940D0B20E030E0A4
:100AF00040E05FE30E940D0B0E94E30C7093130330
:100B000060931203073440F082B1807F866082B91F
:100B1000C0922801C0922A01173458F081E08093D6
:100B2000140382B1807F866082B910922801D0922E
:100B30002A0186E48F1558F481E08093140382B172
:100B4000807F866082B9D092280110922A01812F7D
:100B500090E0602F70E04F2D50E00E94000501975B
:100B600009F08CCF82B1807F866082B9E092280143
:100B7000E0922A0183CFFC0111821082138212823B
:100B80008CE684838EE685830895EF92FF920F931F
:100B90001F935E985F9810921D0310921E0310928F
:100BA0001F031092200320911D0330911E034091DA
:100BB0001F03509120032093C9033093CA0340932D
:100BC000CB035093CC0364ED70E3FB013197F1F755
:100BD0005E9A5F9A10921D0310921E0310921F03DB
:100BE0001092200320911D0330911E0340911F039A
:100BF000509120032093C5033093C6034093C7034D
:100C00005093C803FB013197F1F75E985F9A1092F9
:100C10001D0310921E0310921F03109220032091B7
:100C20001D0330911E0340911F0350912003209318
:100C30002503309326034093270350932803FB0199
:100C40003197F1F72091C9033091CA034091CB034A
:100C50005091CC037C010027F7FC0095102F2E1536
:100C60003F0540075107E0F480912503909126034A
:100C7000A0912703B09128038E159F05A007B10707
:100C800078F48091C5039091C603A091C703B091F9
:100C9000C8038E159F05A007B10710F48AE785C029
:100CA0002091C9033091CA034091CB035091CC03EA
:100CB0008091250390912603A0912703B0912803EA
:100CC00082179307A407B507B8F42091C9033091A0
:100CD000CA034091CB035091CC038091C5039091FE
:100CE000C603A091C703B091C80382179307A40756
:100CF000B50710F482E759C02091C9033091CA03A7
:100D00004091CB035091CC03809125039091260311
:100D1000A0912703B0912803281739074A075B07DA
:100D2000B8F42091C5033091C6034091C703509198
:100D3000C8038091250390912603A0912703B091C9
:100D40002803281739074A075B0710F482E62DC0ED
:100D50002091C5033091C6034091C7035091C80349
:100D60008091250390912603A0912703B091280339
:100D700082179307A407B507B8F42091C9033091EF
:100D8000CA034091CB035091CC038091C50390914D
:100D9000C603A091C703B091C803281739074A07B3
:100DA0005B0710F487E601C081E71F910F91FF9068
:100DB000EF900895CF93DF93EC018091F9048C3686
:100DC00009F042C0A091F704B091F8042091F50415
:100DD0003091F6044C36E9F4CD01019721503040B2
:100DE000FC01EE0FFF1FE80FF91FEE0FFF1FC901F7
:100DF00055E0880F991F5A95E1F7220F331F821B88
:100E0000930BE80FF91FE35DFC4F64832FEF3FEF77
:100E1000D3C0C9010197FD01EE0FFF1FEA0FFB1FB1
:100E2000EE0FFF1F9C01B5E0220F331FBA95E1F7CB
:100E3000880F991F281B390BE20FF31FE35DFC4F4E
:100E400065832FEF3FEFD8C0843609F04AC0A091E8
:100E5000F704B091F804423719F5CD0101972091BC
:100E6000F5043091F60421503040FC01EE0FFF1FD5
:100E7000E80FF91FEE0FFF1FC90145E0880F991F0A
:100E80004A95E1F7220F331F821B930BE80FF91FDE
:100E9000E35DFC4F628320E030E06FEF7FEF49C0FD
:100EA000CD010197FC01EE0FFF1FE80FF91FEE0FB8
:100EB000FF1F8091F5049091F6049C0155E0220FEC
:100EC000331F5A95E1F7880F991F281B390BE20F42
:100ED000F31FE35DFC4F638320E030E06FEF7FEFB3
:100EE0008DC0853709F043C0A091F704B091F80494
:100EF0004C3611F58091F5049091F6040197FD01AF
:100F0000EE0FFF1FEA0FFB1FEE0FFF1F9C0155E0C6
:100F1000220F331F5A95E1F7880F991F281B390BB1
:100F2000E20FF31FE35DFC4F628320E030E060E0FE
:100F300070E08FEF9FEF64C0FD01EE0FFF1FEA0F1F
:100F4000FB1FEE0FFF1F8091F5049091F6049C01AA
:100F500075E0220F331F7A95E1F7880F991F281B40
:100F6000390BE20FF31FE35DFC4F638343C0A09195
:100F7000F704B091F8042091F5043091F60442375B
:100F800011F5CD010197FC01EE0FFF1FE80FF91FCE
:100F9000EE0FFF1FC9019C01B5E0220F331FBA9568
:100FA000E1F7880F991F281B390BE20FF31FE35D50
:100FB000FC4F648320E030E060E070E080E090E08F
:100FC0004FEF5FEF1FC0FD01EE0FFF1FEA0FFB1F8A
:100FD000EE0FFF1FC9019C0145E0220F331F4A9508
:100FE000E1F7880F991F281B390BE20FF31FE35D10
:100FF000FC4F658320E030E060E070E080E090E04E
:1010000040E050E0820F931F2091F5043091F604E8
:10101000820F931F460F571F2091F7043091F80459
:10102000420F531FFA01EE0FFF1F9C01220F331FC7
:1010300065E0880F991F6A95E1F7C130D10569F421
:10104000E40FF51FEE0FFF1F821B930BE80FF91F34
:10105000E35DFC4FD183C0830CC0E40FF51FEE0F9E
:10106000FF1F821B930BE80FF91FE35DFC4F1182FA
:101070001082DF91CF910895DF92EF92FF920F934C
:101080001F93CF93DF93EC017B0184E00E94E70282
:10109000082F8DE00E94E702D82E10E00C171D07E4
:1010A00064F480E00E946204C7010E94C505682FB5
:1010B0008093000281E090E004C080E090E06091C5
:1010C00000024CE60E94DA068D2D90E08C179D07F9
:1010D00064F484EB0E946204C7010E94C505682F76
:1010E0008093000281E090E004C080E090E0609195
:1010F000000242E70E94DA06DF91CF911F910F9123
:10110000FF90EF90DF900895E091F9042091F504AD
:101110003091F604A091F704B091F804EC36D9F4BC
:10112000F901EE0FFF1FE20FF31FEE0FFF1FEA0F93
:10113000FB1F23E0EE0FFF1F2A95E1F7EE52FC4F55
:101140009383828381E090E09183808377836683B9
:10115000558344830895E237D9F4F901EE0FFF1F58
:10116000E20FF31FEE0FFF1FEA0FFB1F23E0EE0F4E
:10117000FF1F2A95E1F7EE52FC4F9183808381E0B7
:1011800090E09383828375836483578346830895B5
:10119000E537D9F4F901EE0FFF1FE20FF31FEE0F51
:1011A000FF1FEA0FFB1F23E0EE0FFF1F2A95E1F759
:1011B000EE52FC4F95838483738362835183408313
:1011C00081E090E0978386830895E436D1F4F901B5
:1011D000EE0FFF1FE20FF31FEE0FFF1FEA0FFB1FC3
:1011E000B3E0EE0FFF1FBA95E1F7EE52FC4F978385
:1011F000868381E090E09583848371836083538349
:1012000042830895FF920F931F93CF93DF93EC01D6
:101210008BE00E94E702082F84E00E94E702F82E8C
:101220008DE00E94E702E82F20E030E010E00C178C
:101230001D0714F421E030E060E070E08F2D90E0B5
:101240008C179D0714F461E070E040E050E08E2FB1
:1012500090E08C179D0714F441E050E0C9010E9412
:101260008408DF91CF911F910F91FF900895EF9225
:10127000FF920F931F937B018C0120E030E040E050
:101280005FE40E94B30C88238CF0C801B70120E012
:1012900030E040E05FE40E94AF0A0E94E30C9B0153
:1012A000AC01205030404040504806C0C801B70152
:1012B0000E94E30C9B01AC01B901CA011F910F917F
:1012C000FF90EF900895A0E0B0E0E9E6F9E00C941B
:1012D000B90FDC012B01FA019C91923008F439C15D
:1012E000EB018881823008F433C1943069F4843092
:1012F00009F02FC111969C9111978981981709F4D3
:1013000028C1A1E0B2E025C1843009F421C18230B6
:10131000A9F4923009F01DC19A01AD0188E0EA01FB
:101320000990AE01E90109929E018150C1F7E201E5
:10133000898111969C918923818308C1923009F497
:1013400007C112962D903C901397EB018A819B81E7
:101350001496AD90BD90CD90DC901797EC80FD80F9
:101360000E811F819101281B390BB90137FF04C081
:1013700066277727621B730B603271050CF061C022
:10138000121613066CF537014801062E04C0969418
:101390008794779467940A94D2F721E030E040E094
:1013A00050E004C0220F331F441F551F6A95D2F727
:1013B00021503040404050402E213F2140235123B6
:1013C000211531054105510521F021E030E040E0D3
:1013D00050E079018A01E628F728082919293CC03C
:1013E000232BD1F1260E371E35014601062E04C0EF
:1013F00096948794779467940A94D2F721E030E02A
:1014000040E050E004C0220F331F441F551F6A956F
:10141000D2F721503040404050402A213B214C21FE
:101420005D21211531054105510521F021E030E014
:1014300040E050E059016A01A628B728C828D928F9
:101440000BC0821593052CF01C01AA24BB24650156
:1014500003C0EE24FF24870111969C91D2011196BE
:101460008C91981709F445C0992339F0A801970188
:101470002A193B094C095D0906C0A60195012E19E0
:101480003F09400B510B57FD08C011823382228265
:1014900024833583468357831DC081E08183338253
:1014A000228288279927DC01821B930BA40BB50BA2
:1014B00084839583A683B7830DC0220F331F441FF7
:1014C000551F2483358346835783828193810197F7
:1014D000938382832481358146815781DA01C90152
:1014E0000197A109B1098F5F9F4FAF4FBF4328F309
:1014F0000BC0918333822282EA0CFB1C0C1D1D1D44
:10150000E482F5820683178383E08083248135811A
:101510004681578157FF1AC0C901AA2797FDA09598
:10152000BA2F81709070A070B0705695479537951E
:101530002795822B932BA42BB52B84839583A6838D
:10154000B78382819381019693838283DF0101C0F7
:10155000D201CD01CDB7DEB7E2E10C94D50FA0E208
:10156000B0E0E5EBFAE00C94C50F69837A838B83D6
:101570009C832D833E834F835887E9E0EE2EF12C28
:10158000EC0EFD1ECE010196B7010E94D40E8E0115
:101590000F5E1F4FCE010596B8010E94D40E8A89B6
:1015A00091E089278A8BC701B801AE01475E5F4F82
:1015B0000E9463090E94FF0DA096E6E00C94E10FE3
:1015C000A0E2B0E0E6EEFAE00C94C50F69837A83FE
:1015D0008B839C832D833E834F835887F9E0EF2EC6
:1015E000F12CEC0EFD1ECE010196B7010E94D40E27
:1015F0008E010F5E1F4FCE010596B8010E94D40EDA
:10160000C701B801AE01475E5F4F0E9463090E94A7
:10161000FF0DA096E6E00C94E10FA0E2B0E0E3E15C
:10162000FBE00C94B90F69837A838B839C832D83B1
:101630003E834F835887CE010196BE01675F7F4F7F
:101640000E94D40ECE010596BE016F5E7F4F0E94B0
:10165000D40E9985923088F089898230C8F0943010
:1016600019F4823051F404C0843029F4923081F4AA
:1016700081E092E0C6C0923049F420E09A858A89E0
:10168000981321E02A87CE010996BBC0823049F425
:1016900020E09A858A89981321E02A8BCE01419611
:1016A000B0C02D843E844F8458886D887E888F8892
:1016B000988CEE24FF248701AA24BB24650140E016
:1016C00050E060E070E0E0E0F0E0C1018170907017
:1016D000892BE9F0E60CF71C081D191D9A01AB01D6
:1016E0002A0D3B1D4C1D5D1D80E090E0A0E0B0E0A8
:1016F000E614F7040805190520F481E090E0A0E065
:10170000B0E0BA01A901480F591F6A1F7B1FAA0C3C
:10171000BB1CCC1CDD1C97FE08C081E090E0A0E063
:10172000B0E0A82AB92ACA2ADB2A3196E032F105AC
:1017300049F0660C771C881C991C56944794379482
:101740002794C3CFFA85EA892B893C898B859C85B0
:10175000280F391F2E5F3F4F17C0CA01817090704C
:10176000892B61F016950795F794E79480E090E057
:10177000A0E0B0E8E82AF92A0A2B1B2B769567959A
:10178000579547952F5F3F4F77FDE7CF0CC0440F2C
:10179000551F661F771F17FD4160EE0CFF1C001FD1
:1017A000111F21503040403090E0590790E0690708
:1017B00090E4790760F32B8F3C8FDB01CA018F77B0
:1017C0009070A070B07080349105A105B10561F4EE
:1017D00047FD0AC0E114F1040105110529F0405C40
:1017E0005F4F6F4F7F4F40781A8EFE1711F081E0E8
:1017F0008A8F4D8F5E8F6F8F78A383E0898FCE01A4
:1018000049960E94FF0DA096E2E10C94D50FA8E145
:10181000B0E0EDE0FCE00C94C10F69837A838B8328
:101820009C832D833E834F835887B9E0EB2EF12CA8
:10183000EC0EFD1ECE010196B7010E94D40E8E0162
:101840000F5E1F4FCE010596B8010E94D40E298568
:10185000223008F47EC03989323010F4B8017CC0DF
:101860008A859A8989278A87243011F0223031F4B9
:10187000231709F06EC061E072E06EC0343039F4B5
:101880001D861E861F86188A1C861B8604C0323061
:1018900021F484E08987B7015FC02B853C858B8963
:1018A0009C89281B390B3C872B87ED84FE840F8590
:1018B0001889AD88BE88CF88D88CEA14FB040C0543
:1018C0001D0540F4EE0CFF1C001F111F215030407D
:1018D0003C872B8720E030E040E050E080E090E063
:1018E000A0E0B0E460E070E0EA14FB040C051D0524
:1018F00040F0282B392B4A2B5B2BEA18FB080C09EC
:101900001D09B695A79597958795EE0CFF1C001FAE
:10191000111F6F5F7F4F6F31710531F7DA01C90118
:101920008F779070A070B07080349105A105B105DB
:1019300061F427FD0AC0E114F1040105110529F045
:10194000205C3F4F4F4F5F4F20782D873E874F875A
:10195000588BBE01675F7F4FCB010E94FF0D6896D9
:10196000EAE00C94DD0FA8E1B0E0E9EBFCE00C94B8
:10197000C50F69837A838B839C832D833E834F833A
:10198000588789E0E82EF12CEC0EFD1ECE01019661
:10199000B7010E94D40E8E010F5E1F4FCE01059637
:1019A000B8010E94D40E8985823040F08989823046
:1019B00028F0C701B8010E944C0F01C08FEF689654
:1019C000E6E00C94E10FACE0B0E0E9EEFCE00C9452
:1019D000C90F69837A838B839C83CE010196BE01F4
:1019E0006B5F7F4F0E94D40E8D81823061F1823017
:1019F00050F1843021F48E81882351F12EC02F8143
:101A0000388537FD20C06E812F3131051CF06623EB
:101A1000F9F023C08EE190E0821B930B29853A8573
:101A20004B855C8504C056954795379527958A95D3
:101A3000D2F76623B1F050954095309521953F4FF0
:101A40004F4F5F4F0EC020E030E040E050E009C053
:101A50002FEF3FEF4FEF5FE704C020E030E040E0C2
:101A600050E8B901CA012C96E2E00C94E50FA8E019
:101A7000B0E0EDE3FDE00C94C10F7B018C0161153A
:101A800071058105910519F482E0898360C083E0C6
:101A900089838EE1C82ED12CDC82CB82ED82FE823E
:101AA0000F831887C801B7010E94B00DFC01319760
:101AB000F7FF3BC0222733272E1B3F0B570168013E
:101AC000022E04C0D694C794B794A7940A94D2F770
:101AD00040E050E060E070E081E090E0A0E0B0E045
:101AE00004C0880F991FAA1FBB1F2A95D2F7019720
:101AF000A109B1098E219F21A023B1230097A1053F
:101B0000B10521F041E050E060E070E04A295B2936
:101B10006C297D294D835E836F8378878EE190E009
:101B20008E1B9F0B9C838B8312C0309781F00E2EEF
:101B300004C0EE0CFF1C001F111F0A94D2F7ED82A7
:101B4000FE820F831887CE1ADF0ADC82CB821A82CC
:101B5000CE0101960E94FF0D2896EAE00C94DD0F5D
:101B6000EF92FF920F931F937B018C0180E0E816A8
:101B700080E0F80681E0080780E0180788F48FEF1E
:101B8000E816F1040105110531F028F088E090E035
:101B9000A0E0B0E017C080E090E0A0E0B0E012C0AC
:101BA00080E0E81680E0F80680E0080781E018078A
:101BB00028F088E190E0A0E0B0E004C080E190E08F
:101BC000A0E0B0E020E230E040E050E0281B390B1C
:101BD0004A0B5B0B04C016950795F794E7948A951A
:101BE000D2F7F701E75FFD4F8081281B31094109DA
:101BF0005109C9011F910F91FF90EF900895DF9255
:101C0000EF92FF920F931F93FC01E480F580068111
:101C10001781D1808081823048F480E090E0A0E19B
:101C2000B0E0E82AF92A0A2B1B2BA5C0843009F45E
:101C30009FC0823021F4EE24FF24870105C0E11407
:101C4000F1040105110519F4E0E0F0E096C06281AD
:101C500073819FEF623879070CF05BC022E83FEF99
:101C6000261B370B2A3131052CF020E030E040E014
:101C700050E02AC0B801A701022E04C076956795EE
:101C8000579547950A94D2F781E090E0A0E0B0E044
:101C900004C0880F991FAA1FBB1F2A95D2F701976E
:101CA000A109B1098E219F21A023B1230097A1058D
:101CB000B10521F081E090E0A0E0B0E09A01AB0135
:101CC000282B392B4A2B5B2BDA01C9018F779070B7
:101CD000A070B07080349105A105B10539F427FFDB
:101CE00009C0205C3F4F4F4F5F4F04C0215C3F4F06
:101CF0004F4F5F4FE0E0F0E02030A0E03A07A0E077
:101D00004A07A0E45A0710F0E1E0F0E079018A0107
:101D100027C06038710564F5FB01E158FF4FD80119
:101D2000C7018F779070A070B07080349105A105C5
:101D3000B10539F4E7FE0DC080E490E0A0E0B0E02A
:101D400004C08FE390E0A0E0B0E0E80EF91E0A1FA7
:101D50001B1F17FF05C016950795F794E79431965A
:101D600087E016950795F794E7948A95D1F705C013
:101D7000EE24FF248701EFEFF0E06E2F67956627D2
:101D80006795902F9F77D794DD24D7948E2F8695D3
:101D9000492F462B582F5D29B701CA011F910F917A
:101DA000FF90EF90DF900895FC01DB0140815181AD
:101DB0002281622F6F7770E0221F2227221F9381DA
:101DC000892F880F822B282F30E0991F9927991F80
:101DD00011969C93119721153105A9F541155105CF
:101DE0006105710511F482E037C082E89FEF139618
:101DF0009C938E9312979A01AB0167E0220F331FD9
:101E0000441F551F6A95D1F783E08C930DC0220FB4
:101E1000331F441F551F12968D919C911397019764
:101E200013969C938E931297203080E0380780E0C1
:101E3000480780E4580758F314962D933D934D932B
:101E40005C93179708952F3F310579F4411551059B
:101E50006105710519F484E08C93089564FF03C053
:101E600081E08C9312C01C9210C02F573040139603
:101E70003C932E93129783E08C9387E0440F551F79
:101E8000661F771F8A95D1F7706414964D935D9302
:101E90006D937C93179708951F93DC01FB019C9130
:101EA000923008F447C08081823008F443C09430F7
:101EB00051F411961C91843099F58181682F70E05E
:101EC000611B71093FC0843021F0923031F48230BF
:101ED000B9F18181882389F12DC011961C91119748
:101EE0008230F1F081811817D9F412962D913C912E
:101EF0001397828193818217930794F028173907EB
:101F0000BCF014968D919D910D90BC91A02D2481D3
:101F1000358146815781281739074A075B0718F42E
:101F2000112341F00AC082179307A407B50740F4B4
:101F3000112319F061E070E005C06FEF7FEF02C080
:101F400060E070E0CB011F910895AA1BBB1B51E11B
:101F500007C0AA1FBB1FA617B70710F0A61BB70B19
:101F6000881F991F5A95A9F780959095BC01CD01BE
:101F700008952F923F924F925F926F927F928F922D
:101F80009F92AF92BF92CF92DF92EF92FF920F9308
:101F90001F93CF93DF93CDB7DEB7CA1BDB0B0FB612
:101FA000F894DEBF0FBECDBF19942A8839884888BF
:101FB0005F846E847D848C849B84AA84B984C88465
:101FC000DF80EE80FD800C811B81AA81B981CE0F5C
:101FD000D11D0FB6F894DEBF0FBECDBFED01089541
:041FE000F894FFCFA3
:101FE4006E00000000000000000001020203030371
:101FF4000304040404040404040505050505050597
:102004000505050505050505050606060606060675
:10201400060606060606060606060606060606065C
:102024000606060606060606060707070707070745
:10203400070707070707070707070707070707072C
:10204400070707070707070707070707070707071C
:10205400070707070707070707070707070707070C
:1020640007070707070707070708080808080808F5
:1020740008080808080808080808080808080808DC
:1020840008080808080808080808080808080808CC
:1020940008080808080808080808080808080808BC
:1020A40008080808080808080808080808080808AC
:1020B400080808080808080808080808080808089C
:1020C400080808080808080808080808080808088C
:1020D400080808080808080808080808080808087C
:0A20E40008080808080808080800AA
:00000001FF
